:100000000C9446000C9465000C9465000C946500FB
:100010000C9465000C9465000C9465000C946500CC
:100020000C9465000C9465000C9465000C946500BC
:100030000C9465000C94E3000C9465000C9465002E
:100040000C9465000C9465000C9465000C9465009C
:100050000C9465000C9465000C9465000C9465008C
:100060000C9465000C9465000C9465000C9465007C
:100070000C9465000C9465000C9465000C9465006C
:100080000C9465000C9465000C94650011241FBE4F
:10009000CFEFD0E4DEBFCDBF11E0A0E0B1E0E8E8F3
:1000A000F4E000E00BBF02C007900D92A430B1074E
:1000B000D9F721E0A4E0B1E001C01D92AD30B20754
:1000C000E1F70E9421020C9442020C940000CF93AD
:1000D000DF9300D000D0CDB7DEB769837A838B83FE
:1000E0009C8389819A81AB81BC818093000190932C
:1000F0000101A0930201B09303018091000190914E
:100100000101A0910201B091030180930501909338
:100110000601A0930701B093080100000F900F9013
:100120000F900F90DF91CF910895CF93DF93CDB7CC
:10013000DEB781E890E02BE0FC01208388E890E0C6
:100140002DE730E0FC01318320838FE690E022E050
:10015000FC01208384E890E0FC01118210828091F0
:10016000000190910101A0910201B09103018093DF
:10017000050190930601A0930701B09308018FE554
:1001800090E02FE530E0F90120812068FC01208318
:100190000000DF91CF910895CF93DF93CDB7DEB705
:1001A00081E890E0FC0110820000DF91CF9108957A
:1001B000CF93DF93CDB7DEB781E0809304010000D9
:1001C000DF91CF9108951F920F9200905F000F92E0
:1001D000112400905B000F922F933F934F935F93F6
:1001E0006F937F938F939F93AF93BF93EF93FF93FF
:1001F000CF93DF93CDB7DEB78091050190910601D3
:10020000A0910701B09108010197A109B10980935C
:10021000050190930601A0930701B0930801809116
:10022000050190910601A0910701B0910801892B69
:100230008A2B8B2B91F40E94D80080910001909121
:100240000101A0910201B0910301809305019093F7
:100250000601A0930701B09308010000DF91CF9140
:10026000FF91EF91BF91AF919F918F917F916F918E
:100270005F914F913F912F910F9000925B000F90F3
:1002800000925F000F901F901895CF93DF93CDB72A
:10029000DEB781EC90E021EC30E0F90120812861AB
:1002A000FC01208382EC90E022EC30E0F901208117
:1002B0002660FC01208384EC90E023E3FC01208392
:1002C00085EC90E0FC0110820000DF91CF91089551
:1002D000CF93DF93CDB7DEB789EC90E029EC30E027
:1002E000F90120812861FC0120838AEC90E02AEC4E
:1002F00030E0F90120812660FC0120838CEC90E045
:1003000023E3FC0120838DEC90E0FC0110820000CF
:10031000DF91CF910895CF93DF93CDB7DEB780EC17
:1003200090E0FC0180818072DF91CF910895CF939E
:10033000DF93CDB7DEB780EC90E0FC018081807464
:10034000DF91CF910895CF93DF93CDB7DEB780ECE7
:1003500090E0FC0180818078DF91CF910895CF9368
:10036000DF93CDB7DEB706C086EC90E0FC0180815C
:1003700080930A0180EC90E0FC0180818823A4F343
:100380000000DF91CF910895CF93DF931F92CDB7F7
:10039000DEB78983000080EC90E0FC018081882F2B
:1003A00090E080729927892BB1F386EC90E0298147
:1003B000FC01208300000F90DF91CF910895CF932F
:1003C000DF93CDB7DEB7000080EC90E0FC018081C8
:1003D0008823D4F786EC90E0FC018081DF91CF91F7
:1003E0000895CF93DF93CDB7DEB780910B01909145
:1003F0000C01892B29F410920C0110920B0105C0FD
:1004000010920C0110920B01000080910B01909151
:100410000C01892B09F00BC00E94A301882331F045
:100420000E94DF01809309010E94AF01000085E274
:1004300090E020910901FC0120830000DF91CF9121
:100440000895CF93DF93CDB7DEB784E290E02FEF2E
:10045000FC01208385E290E0FC0110820E944501AE
:1004600062E370E080E090E00E9467000E949500E7
:100470000E94F1010000809104018823E1F31092B1
:080480000401F6CFF894FFCF50
:04048800010000006F
:00000001FF
