:100000000C9446000C9465000C9465000C946500FB
:100010000C9465000C9465000C9465000C946500CC
:100020000C9465000C9465000C9465000C946500BC
:100030000C9465000C94E3000C9465000C9465002E
:100040000C9465000C9465000C9465000C9465009C
:100050000C9465000C9465000C9465000C9465008C
:100060000C9465000C9465000C9465000C9465007C
:100070000C9465000C9465000C9465000C9465006C
:100080000C9465000C9465000C94650011241FBE4F
:10009000CFEFD0E4DEBFCDBF11E0A0E0B1E0E8E1FA
:1000A000F7E000E00BBF02C007900D92AE30B10741
:1000B000D9F721E0AEE0B1E001C01D92AA31B2074C
:1000C000E1F70E9460030C948A030C940000CF9324
:1000D000DF9300D000D0CDB7DEB769837A838B83FE
:1000E0009C8389819A81AB81BC818093000190932C
:1000F0000101A0930201B09303018091000190914E
:100100000101A0910201B091030180930F0190932E
:100110001001A0931101B093120100000F900F90F5
:100120000F900F90DF91CF910895CF93DF93CDB7CC
:10013000DEB781E890E02BE0FC01208388E890E0C6
:100140002DE730E0FC01318320838FE690E022E050
:10015000FC01208384E890E0FC01118210828091F0
:10016000000190910101A0910201B09103018093DF
:100170000F0190931001A0931101B09312018FE52C
:1001800090E02FE530E0F90120812068FC01208318
:100190000000DF91CF910895CF93DF93CDB7DEB705
:1001A00081E890E0FC0110820000DF91CF9108957A
:1001B000CF93DF93CDB7DEB781E080930E010000CF
:1001C000DF91CF9108951F920F9200905F000F92E0
:1001D000112400905B000F922F933F934F935F93F6
:1001E0006F937F938F939F93AF93BF93EF93FF93FF
:1001F000CF93DF93CDB7DEB780910F0190911001BF
:10020000A0911101B09112010197A109B109809348
:100210000F0190931001A0931101B09312018091EE
:100220000F0190911001A0911101B0911201892B41
:100230008A2B8B2B91F40E94D80080910001909121
:100240000101A0910201B091030180930F019093ED
:100250001001A0931101B09312010000DF91CF9122
:10026000FF91EF91BF91AF919F918F917F916F918E
:100270005F914F913F912F910F9000925B000F90F3
:1002800000925F000F901F901895CF93DF93CDB72A
:10029000DEB781EC90E021EC30E0F90120812861AB
:1002A000FC01208382EC90E022EC30E0F901208117
:1002B0002660FC01208384EC90E023E3FC01208392
:1002C00085EC90E0FC0110820000DF91CF91089551
:1002D000CF93DF93CDB7DEB789EC90E029EC30E027
:1002E000F90120812861FC0120838AEC90E02AEC4E
:1002F00030E0F90120812660FC0120838CEC90E045
:1003000023E3FC0120838DEC90E0FC0110820000CF
:10031000DF91CF910895CF93DF93CDB7DEB780EC17
:1003200090E0FC0180818072DF91CF910895CF939E
:10033000DF93CDB7DEB780EC90E0FC018081807464
:10034000DF91CF910895CF93DF93CDB7DEB780ECE7
:1003500090E0FC0180818078DF91CF910895CF9368
:10036000DF93CDB7DEB706C086EC90E0FC0180815C
:100370008093170180EC90E0FC0180818823A4F336
:100380000000DF91CF910895CF93DF931F92CDB7F7
:10039000DEB78983000080EC90E0FC018081882F2B
:1003A00090E080729927892BB1F386EC90E0298147
:1003B000FC01208300000F90DF91CF910895CF932F
:1003C000DF93CDB7DEB7000080EC90E0FC018081C8
:1003D0008823D4F786EC90E0FC018081DF91CF91F7
:1003E0000895CF93DF931F92CDB7DEB780E290E000
:1003F000FC018081809583708983809118019091A0
:1004000019018230910509F45CC08330910528F40C
:10041000009779F0019781F1CDC08430910509F4FE
:100420008AC08430910508F469C0059709F49FC01B
:10043000C1C08981813039F481E090E09093190145
:1004400080931801C1C08981823039F481E090E045
:100450009093190180931801B7C08981833039F4D2
:1004600081E090E09093190180931801ADC0109243
:10047000190110921801A8C08981813039F482E0F5
:1004800090E090931901809318019EC08981823079
:1004900039F483E090E0909319018093180194C09F
:1004A0008981833039F484E090E09093190180933E
:1004B00018018AC081E090E090931901809318019F
:1004C00083C08981813039F485E090E090931901EF
:1004D000809318010BC082E090E090931901809303
:1004E0001801809114018F5F809314018091140191
:1004F000843008F464C01092140161C08981823094
:1005000039F485E090E090931901809318010BC0B5
:1005100083E090E090931901809318018091150178
:100520008F5F8093150180911501843008F449C0D4
:100530001092150146C08981833039F485E090E03E
:1005400090931901809318010BC084E090E0909380
:10055000190180931801809116018F5F8093160115
:1005600080911601823078F1109216012CC0898199
:10057000813039F485E090E090931901809318015F
:1005800023C08981823039F485E090E0909319018D
:100590008093180119C08981833039F485E090E097
:1005A00090931901809318010FC0109219011092B5
:1005B00018010AC0109219011092180105C000001C
:1005C00003C0000001C00000809118019091190142
:1005D0008230910531F18330910530F4009779F044
:1005E000019709F457C061C08430910509F43FC0F8
:1005F0008430910548F1059709F44EC056C0109219
:1006000013011092140110921501109216010E940C
:100610008B01882309F442C0809113010E94C40118
:100620003DC080911401882F90E08C5F9E4FFC01AB
:100630008081809313010E948B01882389F180912E
:1006400013010E94C4012CC080911501882F90E0F5
:10065000885F9E4FFC018081809313010E948B0173
:10066000882301F1809113010E94C4011BC0809175
:100670001601882F90E0845F9E4FFC01808180935B
:1006800013010E948B01882379F0809113010E944D
:10069000C4010AC0000009C0000007C0000005C076
:1006A000000003C0000001C0000085E290E020913E
:1006B0001301FC01208300000F90DF91CF9108957A
:1006C000CF93DF93CDB7DEB781E290E0FC011082DB
:1006D00082E290E02FEFFC01208384E290E02FEF94
:1006E000FC01208385E290E0FC0110820E9445011C
:1006F00064E670E080E090E00E9467000E94950050
:100700000E94F101000080910E018823E1F3109214
:080710000E01F6CFF894FFCFB3
:0E0718000100000001020408080402010F00A5
:00000001FF
