:100000000C9446000C9465000C9465000C946500FB
:100010000C9465000C9465000C9465000C946500CC
:100020000C9465000C9465000C9465000C946500BC
:100030000C9465000C94E3000C9465000C9465002E
:100040000C9465000C9465000C9465000C9465009C
:100050000C9465000C9465000C9465000C9465008C
:100060000C9465000C9465000C9465000C9465007C
:100070000C9465000C9465000C9465000C9465006C
:100080000C9465000C9465000C94650011241FBE4F
:10009000CFEFD0E4DEBFCDBF11E0A0E0B1E0E2E7FA
:1000A000F9E000E00BBF02C007900D92A432B10747
:1000B000D9F721E0A4E2B1E001C01D92A133B2075B
:1000C000E1F70E940F030C94B7040C940000CF9347
:1000D000DF9300D000D0CDB7DEB769837A838B83FE
:1000E0009C8389819A81AB81BC818093000190932C
:1000F0000101A0930201B09303018091000190914E
:100100000101A0910201B091030180932501909318
:100110002601A0932701B093280100000F900F90B3
:100120000F900F90DF91CF910895CF93DF93CDB7CC
:10013000DEB781E890E02BE0FC01208388E890E0C6
:100140002DE730E0FC01318320838FE690E022E050
:10015000FC01208384E890E0FC01118210828091F0
:10016000000190910101A0910201B09103018093DF
:10017000250190932601A0932701B09328018FE5D4
:1001800090E02FE530E0F90120812068FC01208318
:100190000000DF91CF910895CF93DF93CDB7DEB705
:1001A00081E890E0FC0110820000DF91CF9108957A
:1001B000CF93DF93CDB7DEB781E0809324010000B9
:1001C000DF91CF9108951F920F9200905F000F92E0
:1001D000112400905B000F922F933F934F935F93F6
:1001E0006F937F938F939F93AF93BF93EF93FF93FF
:1001F000CF93DF93CDB7DEB7809125019091260193
:10020000A0912701B09128010197A109B10980931C
:10021000250190932601A0932701B0932801809196
:10022000250190912601A0912701B0912801892BE9
:100230008A2B8B2B91F40E94D80080910001909121
:100240000101A0910201B0910301809325019093D7
:100250002601A0932701B09328010000DF91CF91E0
:10026000FF91EF91BF91AF919F918F917F916F918E
:100270005F914F913F912F910F9000925B000F90F3
:1002800000925F000F901F901895CF93DF93CDB72A
:10029000DEB781EC90E021EC30E0F90120812861AB
:1002A000FC01208382EC90E022EC30E0F901208117
:1002B0002660FC01208384EC90E023E3FC01208392
:1002C00085EC90E0FC0110820000DF91CF91089551
:1002D000CF93DF93CDB7DEB789EC90E029EC30E027
:1002E000F90120812861FC0120838AEC90E02AEC4E
:1002F00030E0F90120812660FC0120838CEC90E045
:1003000023E3FC0120838DEC90E0FC0110820000CF
:10031000DF91CF910895CF93DF93CDB7DEB780EC17
:1003200090E0FC0180818072DF91CF910895CF939E
:10033000DF93CDB7DEB780EC90E0FC018081807464
:10034000DF91CF910895CF93DF93CDB7DEB780ECE7
:1003500090E0FC0180818078DF91CF910895CF9368
:10036000DF93CDB7DEB706C086EC90E0FC0180815C
:1003700080932A0180EC90E0FC0180818823A4F323
:100380000000DF91CF910895CF93DF931F92CDB7F7
:10039000DEB78983000080EC90E0FC018081882F2B
:1003A00090E080729927892BB1F386EC90E0298147
:1003B000FC01208300000F90DF91CF910895CF932F
:1003C000DF93CDB7DEB7000080EC90E0FC018081C8
:1003D0008823D4F786EC90E0FC018081DF91CF91F7
:1003E00008950F931F93CF93DF9300D000D0CDB724
:1003F000DEB769837A838B839C8380912B019091F4
:100400002C01A0912D01B0912E019C01AD016981BB
:100410007A818B819C810E942303882309F477C011
:1004200020E030E0A90169817A818B819C810E9462
:100430002303882351F481E990E021E930E0F901B8
:1004400020812870FC01208309C081E990E021E926
:1004500030E0F90120812360FC01208328E539E3A5
:1004600044E75FE369817A818B819C810E94230349
:10047000882344F488E990E02FEF3FEFFC013183BB
:10048000208334C020E034E244EF56E469817A816D
:100490008B819C810E944504181634F488E990E011
:1004A000FC011182108222C008E910E020E030E057
:1004B00040E053E469817A818B819C810E944A04E7
:1004C000DC01CB019C01AD0160E074E284EF9AE4B1
:1004D0000E942803DC01CB01BC01CD010E949A03DC
:1004E000DC01CB010197F8019183808384E990E0DE
:1004F000FC011182108289819A81AB81BC81809339
:100500002B0190932C01A0932D01B0932E0100009C
:100510000F900F900F900F90DF91CF911F910F913F
:100520000895CF93DF93CDB7DEB780E990E020E464
:10053000FC01208381E990E02BE0FC01208360E056
:1005400070E0CB010E94F1010000DF91CF9108958E
:10055000CF93DF93CDB7DEB780E990E0FC01108246
:1005600081E990E0FC0110820000DF91CF910895B5
:10057000CF93DF93CDB7DEB780912F0190913001FB
:10058000009719F0019739F00DC081E090E0909349
:10059000300180932F0181E090E0909330018093AF
:1005A0002F0105C01092300110922F0100008091A0
:1005B0002F0190913001009719F0019721F018C098
:1005C0000E94A80215C00E9491020E94A3018823E4
:1005D00071F00E94DF01882331F00E94DF01815019
:1005E0008093290102C00E94A8020E94AF0100006E
:1005F00080912901882F90E0880F991F880F991FFB
:100600008C5F9E4FFC0180819181A281B381BC01EE
:10061000CD010E94F1010000DF91CF910895CF93A9
:10062000DF93CDB7DEB784E290E02FEFFC012083AB
:1006300085E290E0FC0110820E9445010E94910237
:100640000E94B802FDCF0E94D00308F481E0089513
:100650000E943C030C940B040E94040458F00E9476
:10066000FD0340F029F45F3F29F00C94F40351118D
:100670000C943F040C94FA030E941C0468F3992321
:10068000B1F3552391F3951B550BBB27AA2762178E
:100690007307840738F09F5F5F4F220F331F441F9B
:1006A000AA1FA9F335D00E2E3AF0E0E832D09150CF
:1006B0005040E695001CCAF72BD0FE2F29D0660FBC
:1006C000771F881FBB1F261737074807AB07B0E8FF
:1006D00009F0BB0B802DBF01FF2793585F4F3AF005
:1006E0009E3F510578F00C94F4030C943F045F3F57
:1006F000E4F3983ED4F3869577956795B795F7958B
:100700009F5FC9F7880F911D9695879597F9089572
:10071000E1E0660F771F881FBB1F6217730784070E
:10072000BA0720F0621B730B840BBA0BEE1F88F71D
:10073000E09508950E94A1036894B1110C943F04C0
:1007400008950E94240488F09F5798F0B92F9927A4
:10075000B751B0F0E1F0660F771F881F991F1AF0AC
:10076000BA95C9F714C0B13091F00E943E04B1E0CF
:1007700008950C943E04672F782F8827B85F39F0CE
:10078000B93FCCF3869577956795B395D9F73EF445
:1007900090958095709561957F4F8F4F9F4F0895ED
:1007A000990F0008550FAA0BE0E8FEEF1616170682
:1007B000E807F907C0F012161306E407F50798F0EA
:1007C000621B730B840B950B39F40A2661F0232B03
:1007D000242B252B21F408950A2609F4A140A6957F
:1007E0008FEF811D811D089597F99F6780E870E064
:1007F00060E008959FEF80EC089500240A94161697
:10080000170618060906089500240A9412161306FE
:10081000140605060895092E0394000C11F488238C
:1008200052F0BB0F40F4BF2B11F460FF04C06F5FA8
:100830007F4F8F4F9F4F089557FD9058440F551F7E
:1008400059F05F3F71F04795880F97FB991F61F052
:100850009F3F79F087950895121613061406551FC9
:10086000F2CF4695F1DF08C0161617061806991F35
:10087000F1CF86957105610508940895E894BB272A
:1008800066277727CB0197F908950E94D00308F4D3
:100890008FEF08950E945D040C940B040E94FD03E9
:1008A00038F00E94040420F0952311F00C94F40316
:1008B0000C94FA0311240C943F040E941C0470F35E
:1008C000959FC1F3950F50E0551F629FF001729FF5
:1008D000BB27F00DB11D639FAA27F00DB11DAA1F04
:1008E000649F6627B00DA11D661F829F2227B00D51
:1008F000A11D621F739FB00DA11D621F839FA00DDC
:10090000611D221F749F3327A00D611D231F849F2B
:10091000600D211D822F762F6A2F11249F57504082
:100920009AF0F1F088234AF0EE0FFF1FBB1F661FFD
:10093000771F881F91505040A9F79E3F510580F0C6
:100940000C94F4030C943F045F3FE4F3983ED4F31B
:10095000869577956795B795F795E7959F5FC1F76A
:10096000FE2B880F911D9695879597F90895F89419
:02097000FFCFB7
:1009720001000000A4D082437BD49243A4D0A443BC
:10098200719DAE430000C4430000DC43A4F0F64373
:0409920000D002444B
:00000001FF
